S00F0000656D7074794343432E733337ED
S113000000100020F5030000F3030000F3030000D8
S1130010F3030000F3030000F3030000F303000004
S1130020F3030000F3030000F3030000F3030000F4
S1130030F3030000F3030000F3030000F3030000E4
S1130040F3030000F3030000F3030000F3030000D4
S1130050F3030000F3030000F3030000F3030000C4
S1130060F3030000F3030000F3030000F3030000B4
S1130070F3030000F3030000F30300008103000016
S11300808D030000F3030000F3030000F3030000FA
S1130090F3030000A1060000F3030000F3030000D3
S11300A0F303000021080000FD070000F303000033
S11300B0F3030000F3030000F3030000F303000064
S11300C0F3030000F3030000F3030000F303000054
S11300D0F3030000F3030000F3030000F303000044
S11300E0F3030000F3030000F3030000F303000034
S11300F0F3030000F3030000F3030000F303000024
S1130100F3030000F3030000F3030000F303000013
S1130110F3030000F3030000F3030000F303000003
S1130120F3030000F3030000F3030000F3030000F3
S1130130F3030000F3030000F3030000F3030000E3
S113014010B5054C237833B9044B13B1044800E0CF
S113015000BF0123237010BD901000200000000098
S1130160203E000008B5034B1BB10349034800E0DF
S113017000BF08BD0000000094100020203E0000D5
S1130180A3F5803A704700BF174B002B08BF134BF1
S11301909D46FFF7F5FF00218B460F461348144A8E
S11301A0121A02F073FA0E4B002B00D098470D4B35
S11301B0002B00D098470020002104000D000D48BA
S11301C0002802D00C4800E000BF02F03BFA2000F7
S11301D0290000F02BF802F00FFA00BF000008001D
S11301E0000000000000000000100020901000201B
S11301F0C014002000000000000000007047000050
S113020008B502F00DFA40B2692809D1054B064839
S1130210596FBDE80840C94301F0010102F03EBA3C
S113022008BD00BF00C003406C39000008B502F0EF
S1130230CBF9FFF7E3FF02F0D4F9FFF7E1FFFAE7A8
S1130240704708B50321802001F09CF803214FF486
S1130250806001F097F803214FF4906001F092F868
S113026008214FF4C06001F08DF808214FF4F060CC
S113027001F088F808213E2001F084F808212D209F
S113028001F080F8002008BD08B5134B1B68C3F3C8
S11302900743012B0ED1114B04205A6E4FF48023D7
S11302A00F49520358BF0F4A4B6601F510410862CB
S11302B058BF536601F08EFE00F097F801F010FE6F
S11302C001F030FE01F06CFEFFF7BBFF01F018FEF9
S11302D0BDE8084000F080B80080E00F00800040D6
S11302E00090004000A0004008B500F031FABDE8DD
S11302F0084000F04DB808B500F06CF801F0F6FEC7
S1130300BDE8084000F03AB8704700F047B87047BD
S1130310704770477047000070B5144C92B00BAD35
S11303200FCC0FC594E80700032385E8070003AE4C
S11303308DF8453007AD04F10C031C340FCB86E86F
S11303400F0094E80F0085E80F00094B294600933D
S1130350084833460BAA02F063F8044618B1872113
S1130360054800F06FFA204612B070BDA0390000B5
S1130370AC1000200811002070390000FFF7CCBF3A
S1130380014B186802F008B908110020FFF7F8BF04
S1130390014800F0C1B800BFDC390000012208B5F3
S11303A0074B1A700022074B1A700422064B1A706E
S11303B01F22064B1A7001F037FE054B186008BD6A
S11303C00810002024110020091000200A10002029
S11303D0201100200F20704708B501213A2000F0B9
S11303E00DFCBDE80840FFF72BBF01213A2000F0C7
S11303F005BCFEE708B500F013F8064B064A0749AA
S11304008B4201D3FFF7C0FE52F8040B43F8040BF0
S1130410F6E700BF00100020283E000090100020E6
S1130420044B054A9A60D3F8882042F47002C3F85A
S11304308820704700ED00E000000000014B1868C0
S1130440704700BF10100020084B1B6F03F0070318
S1130450022B04D0032B05D0012B05D0FEE7044B5F
S113046018687047034BFBE703487047008000405F
S11304701010002014100020002D310108B5FFF7E2
S1130480E3FF054B1B6FC3F303330133B0FBF3F0FE
S1130490024B186008BD00BF008000400C10002013
S11304A00048704700B4C404014B1868704700BF8B
S11304B014100020054B1860054B1B6F03F0070355
S11304C0032B01D1FFF7DABF704700BF14100020DF
S11304D0008000400020704700487047002D310123
S11304E04FF4004070474FF47A707047014B18681E
S11304F0704700BF1810002005490A681318054802
S113050083428CBF4FF0FF320B601046704700BF30
S11305101C10002000800020436803B118472220EB
S11305207047704738B50D460446B0B1012817D05E
S1130530022817D0032803D10C23EB40DB0704D493
S113054040F2CD31084800F07DF930204443074B98
S11305501859E84000F0010038BD40F2FF13ECE701
S11305601F23EAE7FF23E8E7F439000014C003403F
S113057038B50D680C462B78022B0CD06979287994
S1130580FFF7D0FFB0FA80F0400928702046BDE89C
S11305903840FFF7C6BF38BD37B5046801210546AA
S11305A03A2000F02BFB002301226179207901F02D
S11305B0DBFA61792079FFF7B5FFB0FA80F35B09C4
S11305C02370A379022B15D100F0C2F82A460B49F7
S11305D0607900F0E7F8FF28054603D14F21084869
S11305E000F030F90123617920792A46CDE90033FE
S11305F001F040FA002003B030BD00BF71050000D7
S1130600443A000003681878704710B504682378EA
S1130610022B15D061792079FFF784FFA279012A92
S113062015D1003818BF01204FF6E071638840EA05
S1130630430363F03F039BB28B4202D12270638079
S113064010BD4FF6DF729342F9D10022F6E7002A7B
S1130650F6D1B0FA80F040092070F1E703681A7807
S1130660022A03D100225A80FFF796BF704713B5C0
S113067004682378022B10D0A379022B0BD100211C
S1130680607900F07DF80023627920791146CDE984
S1130690003301F0EFF90223237002B010BD000013
S11306A02DE9F843174B1F6D5B6D1F4000D5FEE726
S11306B001260025144CDFF85480DFF854903742AB
S11306C017D02368C8F850609BB1A168284601314F
S11306D06268A1609847637B012B0AD148B909EB92
S11306E045131A7B60F341021A731A7F60F34102C7
S11306F01A770135082D4FEA460604F11004DED1BD
S1130700BDE8F883000004402811002000200440C4
S1130710A811002070B5044601250C4E04B970BD23
S113072094FAA4F3B3FA83F305FA03F206EB031184
S113073024EA02044A68002AF0D0D8B20B7B13B131
S113074089689047EAE79047E8E700BFA8120020CD
S113075008B5192001F008F828B14FF00072074BD2
S1130760C3F880211A601A2000F0FEFF28B14FF070
S11307708062024BC3F880211A6008BD00E100E0EA
S113078038B505460C4600F0E6FF0022044B03EBA7
S113079005135C601A73BDE8384000F0E2BF00BF87
S11307A0A8120020F8B505460F46164600F0D3FF00
S11307B0104B05F0FC02D3F824140023EC1804F0C9
S11307C00304144321FA04FC1CF0010F07D0013385
S11307D0042BF3D1FF2400F0C4FF2046F8BDFF2C06
S11307E0F9D00122044B03EB0413C3E901761A7315
S11307F0F1E700BF00C00340A8120020074BD3F864
S11308002404D3F8202403F50053104000F055309D
S113081020F05020C3F82004FFF77CBF00C0034041
S1130820074BD3F82404D3F8202403F500531040D5
S113083000F0AA3020F0A020C3F82004FFF76ABF1C
S113084000C00340FEE74FF04023D3F88420D206D3
S1130850FBD4D3F88400C0F38110704738B5124B31
S11308600546D3F820310C4603F00303022B0BD0CA
S1130870032B0DD0012B0FD1FFF7E0FD052305B1AC
S1130880286004B1237038BDFFF70EFE0323F6E79A
S1130890FFF722FE0223F2E7044840F6BE71FFF799
S11308A0D1FF00231846EAE700800040A53A000083
S11308B0F7B50024114B0194D3F88051074605F095
S11308C00305012D0E4607D0022D11D041F2E2019D
S11308D00B48FFF7B7FF04E0214601A8FFF7BEFF6E
S11308E00F240FB1019B3B6006B1347003B0F0BD1F
S11308F0FFF7F2FD2C460190F3E700BF00800040B3
S1130900A53A000038B5194B0546D3F824310C46F6
S113091003F00703013B052B20D8DFE803F0030FA6
S1130920171B0B13FFF78AFD052305B1286004B1DB
S1130930237038BDFFF782FD0623F6E7FFF7B4FD09
S11309400323F2E7FFF7B0FD0423EEE7FFF7C4FD4E
S11309500223EAE7FFF7BEFD0723E6E7044840F673
S11309604651FFF76FFF00231846DEE70080004082
S1130970A53A000038B5124B0546D3F840310C4671
S113098003F00303022B0BD0032B0DD0012B0FD14B
S1130990FFF7A6FD092305B1286004B1237038BD13
S11309A0FFF7A4FD0823F6E7FFF79DFD0B23F2E70D
S11309B0044840F6EC71FFF745FF00231846EAE7C8
S11309C000800040A53A000038B5154B0546D3F821
S11309D000320C4603F00703013B032B18D8DFE871
S11309E003F0020A0E12FFF77BFD092305B128600C
S11309F004B1237038BDFFF779FD0823F6E7FFF74C
S1130A0072FD0B23F2E7FFF739FD0E23800AEDE7B1
S1130A10044841F29811FFF715FF00231846E5E753
S1130A2000800040A53A000038B5124B0546D3F8C3
S1130A3040320C4603F00303022B0BD0032B0DD0E2
S1130A40012B0FD1FFF74CFD092305B1286004B138
S1130A50237038BDFFF74AFD0823F6E7FFF743FD8F
S1130A600B23F2E7044841F22B11FFF7EBFE0023BE
S1130A701846EAE700800040A53A000038B5124B5A
S1130A800546D3F860310C4603F00303022B0BD068
S1130A90032B0DD0012B0FD1FFF722FD092305B144
S1130AA0286004B1237038BDFFF720FD0823F6E762
S1130AB0FFF719FD0B23F2E7044841F21A01FFF78F
S1130AC0C1FE00231846EAE700800040A53A000072
S1130AD010B40F4C0B46D4F8204204F00304012C4C
S1130AE00ED0022C10D008B1002101600BB10022FD
S1130AF01A704FF4576107485DF8044BFFF7A2BE24
S1130B005DF8044BFFF7AABE5DF8044BFFF732BF54
S1130B1000800040A53A0000B0F5207F10B534D025
S1130B2009D8B0F5007F2AD003D898B1B0F5C07FBA
S1130B3010D0002421E0B0F5607FFAD1154BD3F832
S1130B408030C3F301149B0617D5032C15D04FF442
S1130B501D710FE00F4B1C6F230B13F00E0FC4F32A
S1130B6003340AD0032C08D0072C06D00F2C04D051
S1130B704FF419710848FFF765FE601C10BD054B62
S1130B80D3F89040C4F30464F7E7024B1C6FC4F33A
S1130B908024F2E700800040A53A00004FF40032C0
S1130BA00F4B70B59A66064600200D46FFF7B4FF5A
S1130BB041F671320B4B7043DC690B49DA639A6876
S1130BC0884204F4803422F4401203D9012D18BF62
S1130BD042F480129A600CB10022DA6370BD00BF47
S1130BE00090004000000340005A620208B5FFF77D
S1130BF057FCBDE808400021FFF7D0BF70B5460997
S1130C0004460D460FD140F205310D48FFF71AFE98
S1130C10334604F01F0485B103F58053012000FA24
S1130C2004F41C6070BD012E05D0064B064A022E4A
S1130C3018BF1346EDE7054BEBE703F50053EDE76B
S1130C40A53A000068800040608200406480004053
S1130C50002330B5802885B00446029375D02BD884
S1130C60002878D0A0F12004A3B2412B32D8412C23
S1130C7030D8DFE804F070737073868686867373E9
S1130C80903FA7653F7373732F2F2F2F2F2F8B57F1
S1130C90737373B1AC732F2F2F2F2F2F2F2F2F2F51
S1130CA02F2F2F702F707070862F2F2F2F2F2F2FF5
S1130CB02F2F2F2F2F2F7070B0F5806F61D024D875
S1130CC0B0F5007F54D00BD8B0F5807F68D0B0F574
S1130CD0C07F40D040F25A414248FFF7B3FD37E0AD
S1130CE0B0F5607F44D0F5D8B0F5207F36D0B0F5AC
S1130CF0407FEFD1FFF7C2FB04464FF42070FFF7AB
S1130D000BFFB4FBF0F0400821E0B0F5C06F59D000
S1130D100DD8B0F5A06F39D0B0F5B06F3BD0B0F5B9
S1130D20906FD7D1002102A8FFF7ECFD10E0B0F5D9
S1130D30E06F4CD0B0F5F06F4ED0B0F5D06FC9D1A4
S1130D40002102A8FFF740FE02E0FFF77DFB0290BE
S1130D50029805B030BDFFF791FBF8E7FFF78EFB73
S1130D6004464FF42070FFF7D7FEB4FBF0F0EEE733
S1130D70FFF76AFB05462046FFF7CEFEB5FBF0F011
S1130D80E5E7002102A8FFF769FDE1E7002102A8D9
S1130D90FFF79EFEDCE7002102A8FFF789FDD7E7F5
S1130DA003934FF0E0231B695B0705D5FFF766FB50
S1130DB00390039B0293CBE70DF1070103A8FFF710
S1130DC0D9FDF6E7002102A8FFF7D4FDC0E7002112
S1130DD002A8FFF729FEBBE7002102A8FFF74EFE99
S1130DE0B6E700BFA53A000008B58020FFF730FF42
S1130DF0034B98429EBF4FF48032024B1A6708BDE2
S1130E00005A620200A00040002307B5B0F5807FBD
S1130E108DF8023000F0888028D8382800F0A880A7
S1130E200CD8243883B2092B10D809280ED8DFE84F
S1130E3000F0757575750D0D6B0D378F52286DD0DB
S1130E4007D83D283CD03E2800F0988040F2365127
S1130E5056E08028FAD14C4B1B6F03F00703013B8B
S1130E60032B4BD8DFE803F048444280B0F5D06F41
S1130E706ED01BD8B0F5A06F7AD00BD8B0F5806FC8
S1130E804CD0B0F5906FE1D100200DF10201FFF7D5
S1130E9039FD3EE0B0F5B06F36D0B0F5C06FD5D1B6
S1130EA000200DF10201FFF765FD32E0B0F5006F9F
S1130EB0EAD00BD8B0F5E06F60D0B0F5F06FC5D1D3
S1130EC000200DF10201FFF7D9FD22E0B0F5086F13
S1130ED0BCD12D4BD3F8003103F00303022B3DD0DA
S1130EE0032B3FD0012B41D1FFF7DEFA032300E0AF
S1130EF005238DF802300CE00223FAE740F28C411E
S1130F002248FFF79FFC04E000200DF10201FFF7E7
S1130F10CFFC9DF8020003B05DF804FB00200DF146
S1130F200201FFF79BFCF4E701934FF0E0231B69F8
S1130F305B0707D5FFF7A2FA0C238DF803309DF861
S1130F400330D6E70DF1030101A8FFF713FDF6E71F
S1130F5000200DF10201FFF737FDDAE7FFF7C6FACB
S1130F600823C6E7FFF7B6FA0723C2E70123C0E761
S1130F7000200DF10201FFF7ABFDCAE700200DF1DF
S1130F800201FFF751FDC4E700800040A53A0000CC
S1130F9070B5037804460F2B04D940F621216B4821
S1130FA0FFF750FC63780F2B04D940F624216748DF
S1130FB0FFF748FCA3780F2B04D940F62721634898
S1130FC0FFF740FCE3780F2B04D940F62A215F4851
S1130FD0FFF738FC23790F2B04D940F62D215B4809
S1130FE0FFF730FC63793F2B04D94FF42361574852
S1130FF0FFF728FCA3793F2B04D940F6332153484B
S1131000FFF720FCE379032B04D940F636214F483F
S1131010FFF718FC237A032B04D940F639214B48F7
S1131020FFF710FC637B012B04D940F63C214748B1
S1131030FFF708FC8020FFF7E7FE03287CD04FF47D
S11310400022434B43495A6645F60E030222C1F877
S11310508030414B9A62012203F580539A628A6D73
S113106012F48032FBD1637820781B0543EA0063D5
S1131070A079257C0343E078667C43EA0043207929
S113108043EA0033607943EA80130B618B69E07AA9
S113109003F000430343E07943EA8063207A43EAA0
S11310A00063607A43EA0043A07A43EA00238B6139
S11310B0637B096A002B18BF0822207B21F00D01F5
S11310C043EA010343EA800342EA0302214B1A6222
S11310D0A27B4FEA421230D1986AE17B20F03300C0
S11310E042EA0112024342F001029A621B4A996DDC
S11310F032EA0101FBD1022217498A621A659A6D0C
S11311005200FCD41869A27820F4700040EA02501E
S11311104FF000421861104B9A611DB9022203F589
S113112080539A6216B901220D4B9A62A37C1BB1BB
S1131130084B0C4AC3F8802070BD996A21F0330132
S113114031430A4342EA4502EFE700BFA53A0000F3
S11311500090004000C0004000D000400300014067
S113116000E00040F1A7FFFF014B93F90000704736
S1131170A814002010B583780446072B04D940F640
S11311809F312A48FFF75EFBE378032B04D940F62E
S1131190A1312648FFF756FB2378032B04D940F6E8
S11311A0A3312248FFF74EFB94F90130002B04DAF7
S11311B040F6A5311D48FFF745FB4FF480011C4A5A
S11311C0637851664FF4D151022002F5B83251626E
S11311D018494F2B48604FF0010028BF4F2301F5F9
S11311E0805148601169C903FCD4217843EA012382
S11311F05361E378A1781B0143EA012361790B432E
S1131200217943EA41039360E379A1791B0143EA1D
S11312104113617A0B43217A43EA41035360A37A71
S113122013B16FF4D153536210BD00BFA53A00004F
S11312300090004000100240014B1880704700BF2E
S1131240201000200029CCBF01210021FFF7A6BCFB
S1131250B0F5207F10B565D00ED8B0F5007F4FD023
S113126003D800B3B0F5C07F1DD04FF43A71BDE888
S113127010403448FFF7E6BAB0F5607FF5D14C1E54
S1131280012C06D9042904D040F2CD212D48FFF7C2
S1131290D9FA2D4AD2F8803023F0300343EA0413FC
S11312A0C2F8803010BD102901F1FF3404D8274B57
S11312B023FA01F1CB0704D440F2A3212148FFF71C
S11312C0C1FAFFF793FC00F045F84FF48031204B4E
S11312D01D4A1967136F23F4704343EA04331367F9
S11312E0FFF7CCF80446FFF7AEFAC0F1020120463E
S11312F0FFF7A8FF00F034F8BDE81040FFF774BD15
S11313004C1E1F2C04D94FF437710E48FFF79AFA7C
S11313100D4BD3F8901021F0F85141EA0461C3F861
S11313209010BFE74C1E012C04D940F2E22105487D
S1131330FFF788FA044B196F21F4806141EA842194
S11313401967AFE7A53A00000080004016010100CC
S11313500090004002214FF42070FFF779BF000095
S113136008B54FF4C070FFF773FCBDE808400449AA
S113137088428CBF022101214FF42070FFF768BF1F
S113138080F0FA02B0F5807F70B50C4600F00C8155
S11313902CD8382800F0A48111D8243883B2092B22
S11313A016D8092814D8DFE810F0E400E400E400BB
S11313B0E40013001300CF00130049005301522826
S11313C000F0D78007D83D2853D03E2800F09F81F5
S11313D040F6250122E18028FAD18B1E052B00F26C
S11313E0A880DFE803F0A394A6AEA667B0F5D06F9B
S11313F000F02E8132D8B0F5A06F00F0718116D8BC
S1131400B0F5806F00F0B580B0F5906FE0D1023C8C
S1131410E4B2052C00F21581A84B195DA84AD2F854
S1131420243123F007030B43C2F824316EE0B0F5F6
S1131430B06F00F08980B0F5C06FC9D1083CE4B248
S1131440032C00F2F0809F4B195D9D4AD2F8403185
S113145023F003030B43C2F8403157E0B0F5006FAB
S1131460D5D016D8B0F5E06F00F05181B0F5F06F2B
S1131470AED1083CE4B2032C00F2DC80924B195D3F
S11314808F4AD2F8603123F003030B43C2F8603172
S11314903CE0B0F5086F9BD14C1E072C00F2048190
S11314A0DFE814F00701020109010201020102014F
S11314B00001F600002504260121022000F078F93D
S11314C0FFF794FBFFF746FF4FF480317F4B7C4AD4
S11314D01967136F23F0070333431367FEF7CEFF37
S11314E00646FFF7B0F9C0F102013046FFF7AAFE45
S11314F00121002000F0B4F9FFF732FFFFF774FC7C
S113150025B9032C02D10122714B9A6270BD4FF4AC
S113151000226E4B03265A66012203F540539D6A4E
S113152003F58053C5F340059A62C5E700250126FB
S1131530C2E7002540F277516648FFF783F92E464B
S1131540BAE700250226B7E7022C07D00F2C0ED0ED
S113155040F2BC515F48FFF775F90024584AD2F8AD
S1131560803123F003031C43C2F88041CEE70124F9
S1131570F4E7032C12D0052C12D0022C12D040F226
S1131580F3515448FFF75EF900224D49D1F8203158
S113159023F003031343C1F82031B7E70222F4E731
S11315A00122F2E70322F0E7A1F10804082C33D862
S11315B0DFE804F0050532051C32323205004FF431
S11315C080323F4B4449586E03F580535A660B6A88
S11315D043F001030B62C1035CBF404B5A664FF0FA
S11315E0E022136923F0040313618FE74FF4803280
S11315F0334B3949586E03F580535A660B6A23F00E
S113160001030B62C3035CBF344B5A664FF0E02204
S1131610136943F00403E7E740F21B61BDE870403F
S11316202C48FFF70FB940F237612A48FFF70AF94F
S113163000210AE740F252612648FFF703F900212E
S11316401EE740F277612348FFF7FCF80021E5E646
S1131650083C062C13D8DFE804F00419190E121202
S1131660100002221649D1F8003223F00703134375
S1131670C1F800324AE70322F4E70422F2E740F219
S113168097611448FFF7DEF80022EBE70122E9E74F
S113169002220B49D1F8003123F003031343C1F8AC
S11316A0003133E70322F4E740F2D3610948FFF73E
S11316B0C9F80022EDE70122EBE700BFF83A000089
S11316C000800040F43A0000F43A0000009000402A
S11316D000E00040A53A000000C0074000A0004020
S11316E00F2C10D0102C10D040F219711348FFF7B2
S11316F0A9F800221249D1F8203223F0030313433E
S1131700C1F8203202E70122F4E70222F2E7083CA2
S1131710E4B2032C0AD80B4B195D094AD2F84032C3
S113172023F003030B43C2F84032EFE640F2737137
S11317300248FFF787F80021EFE700BFA53A000051
S113174000800040F43A0000EFF3108072B6704756
S113175000B962B67047EFF31180302383F3118828
S1131760704780F31188704738B5C5B23F2D0446E1
S113177004D940F21F310748FFF764F8064B6409A7
S113178053F8240005F01F05E840C04300F00100B1
S113179038BD00BFFE3A000000E100E04FF04022F7
S11317A0D36E017923F030030B43D366704770473F
S11317B02DE9F0414FF040230446D3F88420D006AD
S11317C0FBD4D3F88430C3F381139C423FD0FEF79B
S11317D03BFE012C05460BD11E4B984204D940F226
S11317E0F9611D48FFF72EF801212846FFF72AFD6D
S11317F0FFF7AAFF4FF00072184B07465A662046BF
S1131800FFF7D5FF4FF480634FF04026621E9340EC
S1131810DFF844803367736E9A0103D4D6F88430BA
S11318209B060AD53846FFF793FF022C0FD12846B2
S1131830BDE8F0410021FFF705BDD6F884309906D4
S1131840E9D540F207714046FEF7FCFFE3E7BDE847
S1131850F08100BF005A62024E3B0000006000406D
S113186007B518B90191FEF7EFFD0199064B1B78F6
S113187043B1064B984205D8012003B05DF804EB50
S1131880FFF796BF0220F8E7A9140020005A62026D
S11318904FF0004210B501244AF6CD31144B5A667C
S11318A0144A03F50B2354605A6C1964224078B926
S11318B0996811F0010F104903D08C60D86AC007F1
S11318C0FCD501234B6012B10C4B0D4A1A6410BDB8
S11318D0D96A0907FCD42021074B59620121A3F5D9
S11318E08053996005494B6A9B06FCD5EBE700BF22
S11318F00090004000500940006009400040094049
S11319003254FFFF4FF0004238B5184B184C5A665A
S1131910012203F50C235A604AF6CD33656C236427
S113192043781540934013434FF04022D363A36898
S1131930827823F0740343EA0213C278002A14BFA6
S1131940042200221343A3600279837943EA022329
S113195023614279C37943EA022363610078FFF784
S113196097FF0DB1034B2364012038BD0090004064
S1131970004009403254FFFF1F2970B504460D464C
S1131980164603D991210748FEF75CFF36B104F5EA
S11319908054012101FA05F5256070BD04F5005459
S11319A0F7E700BF9D3B000038B50D460446D8B1AB
S11319B001281CD002281CD0032803D10C23EB409F
S11319C0DB0704D440F22B410B48FEF73BFF3020E9
S11319D0012141F21003444304F1804401FA05F566
S11319E004F57034E55038BD40F2FF13E7E71F23D8
S11319F0E5E7FF23E3E700BFF439000038B50D46FF
S1131A000446D8B101281CD002281CD0032803D1D5
S1131A100C23EB40DB0704D44FF47F710B48FEF733
S1131A2011FF3020012142F21003444304F18044A9
S1131A3001FA05F504F57034E55038BD40F2FF13A2
S1131A40E7E71F23E5E7FF23E3E700BFF4390000DE
S1131A5070B5054614460E46FFF776FE296881EAFE
S1131A60040202EA06044C402C60BDE87040FFF713
S1131A706FBE00002DE9F3470D4614461E4681460D
S1131A809DF828809DF82C70002843D0012844D06C
S1131A90022844D0032803D10C23EB40DB0703D4F2
S1131AA0BF212848FEF7CEFE85EA040333F0030382
S1131AB003D0C1212348FEF7C5FE072C4FF00301D4
S1131AC005F003052DD84FEA840A01FA0AF11E48ED
S1131AD009FA0AF20191FFF7BBFF01991B4805FAC5
S1131AE00AF2FFF7B5FF324621461948FFF744FFD3
S1131AF0424621461748FFF73FFF0123164AA340F9
S1131B00C2F8203421463A46144802B0BDE8F047F2
S1131B10FFF732BF40F2FF13BFE71F23BDE7FF23E8
S1131B20BBE7A4F1080A4FEA8A0A01FA0AF10C4851
S1131B3009FA0AF20191FFF78BFF0199094805FAA6
S1131B400AF2CEE7EC3B000000C4034008C40340A3
S1131B5010C4034014C4034000E0034024C4034001
S1131B6004C403400CC40340F8B50D4616461F4692
S1131B70044658B301282CD002282CD0032803D1C2
S1131B800C22EA40D30704D44FF4B0711B48FEF78B
S1131B9059FE26B129462046FFB1FFF705FF302341
S1131BA0072D4FF00F0104FB03F319D8A80006FA20
S1131BB000F2814012481844FFF74AFFE6B929466B
S1131BC02046AFB1BDE8F840FFF7EEBE40F2FF1289
S1131BD0D7E71F22D5E7FF22D3E7FFF70FFFDEE7A2
S1131BE0A5F10800800006FA00F281400548E2E70A
S1131BF0BDE8F840FFF702BFF8BD00BFEC3B0000B2
S1131C0004C003400CC003402DE9F04180460E4659
S1131C101F46154622B94FF4A1713148FEF712FE52
S1131C2026B94FF42070FFF713F80646402F2AD048
S1131C3009D8A7B1202F1CD040F28911BDE8F0418A
S1131C402748FEF7FFBD602FF6D1B5EB960F04D9F8
S1131C5040F283112248FEF7F5FD04241DE0B5EBA4
S1131C60161F04D94FF4BA711D48FEF7EBFD10247A
S1131C7013E0B5EBD60F04D940F279111848FEF7FA
S1131C80E1FD082409E00624B6FBF4F3AB4204D2D8
S1131C904FF4BF711248FEF7D5FD6C43610801EBA8
S1131CA04616B6FBF4F40F4E203CB6EBC40F4FEAD5
S1131CB0C40504D24FF4D0710948FEF7C3FDD8F827
S1131CC00830354023F06003C8F80830D8F80830ED
S1131CD01F43C8F80870C8F81C50BDE8F08100BF65
S1131CE03C3C0000F8FF7F0038B50E4B0446984298
S1131CF00D4608D003F58043984204D040F2BE213B
S1131D000948FEF79FFD012204F580535A60EB4316
S1131D10934003F00A036361656115B904F5005447
S1131D20626038BD00C005403C3C0000194B10B552
S1131D309842044608D003F58043984204D040F208
S1131D4034411548FEF77EFD012204F580535A60A4
S1131D5040F6AA6341F20502636100230F49A360C0
S1131D60E365E26004F500522361E361E364916496
S1131D700849A3658C4202D00948844207D18C42A9
S1131D80236502D0064B9C4201D1002363650123E5
S1131D90536010BD00C005403C3C0000FFFF010043
S1131DA000000640444B70B5984204460D4608D0E6
S1131DB003F58043984204D040F2EF213F48FEF7F8
S1131DC041FD2046FFF7B2FF012304F580567360FE
S1131DD0AB7C1BB1A36843F08043A360EB7C5BB195
S1131DE0354A2B7D944245D1A2F51032C2F88C318C
S1131DF0E36D43F08003E3652A8A6B7B204613433B
S1131E00EA891343E3602B7BD5E90112FFF7FCFE5B
S1131E106B7D1BB1A36843F48033A360AB7D1BB11E
S1131E20A36843F40043A360EB7D2A7E1B071205DD
S1131E3002F4E00203F0E0431343A365697E1E4A03
S1131E408B1E012B1E4B1FD894421BD002F58042DF
S1131E5094420CBF01224FF0FF3203EB42130220E5
S1131E6041F21C620329985020D10423F3652B7896
S1131E70636170BD134A944204BFA2F52032C2F8D4
S1131E809C31B5E70022E8E794420DD00D4A944214
S1131E900CBF01224FF0FF3203EB4213022042F247
S1131EA01C6201299850DFE70022F5E7042204F5BB
S1131EB00053DA65DBE700BF00C005403C3C00008E
S1131EC000C003400000064083691B06FCD5406A3D
S1131ED0C0B2704783695B06FCD5C16370470000DC
S1131EE007B56B46054A1068516803C36846FFF797
S1131EF009FD002003B05DF804FB00BF8D3C000029
S1131F004FF0402213B50024536F684643F0010399
S1131F10536700948DF80440FFF740FC204602B05C
S1131F2010BD000070B586B001AA1546184B03F128
S1131F301006144618685968083303C4B34222468D
S1131F40F7D119889B782180A370124BD3F84C21C8
S1131F50120314D4D3F85041E4B28DF80E40FFF7C5
S1131F6003F9204480F308008DF80D000A48FEF7B9
S1131F70A1FA2846FFF70CF8002006B070BD074B05
S1131F801C884FF6FF739C4208BF8C24E5E700BF12
S1131F90953C00000080E00F00F049020001E00FD2
S1131FA01FB50B4A01AB1068516803C31189927ABB
S1131FB019809A70192301A88DF80530FFF7DAF813
S1131FC06420FFF739F9002005B05DF804FB00BF79
S1131FD0A83C00006FF00402502110B50A480B4CD5
S1131FE012F0800FD3B21BBF03F00F03043BA318FE
S1131FF01B1802F101020CBF83F800131976402A62
S1132000EED1002010BD00BF00ED00E000E100E0D3
S113201010B50446FFF798FB024B1C60FFF798FBD2
S1132020002010BDAC14002010B5FFF78DFB034B4E
S11320301C68FFF78DFB204610BD00BFAC140020C8
S113204007B530B9CDE90012FFF7EEFFDDE9001264
S113205030B1436823B1006803B05DF804EB18475E
S1132060232003B05DF804FB30B51C4685B058B995
S1132070CDE90012FFF7D8FFDDE9001204B903AC83
S113208020B9232005B030BD03B903AC8568002D09
S1132090F7D023460068A847F4E700207047FEE71E
S11320A04FF4005300204B6070470120704700201C
S11320B0704707B5002001AB0190FFF7D5FF0198E9
S11320C0002808BF4FF0FF3003B05DF804FB0000A8
S11320D010B500201446FFF7B3FF18B1BF21024822
S11320E0FEF7B0FB204610BDB33C0000034B0222B8
S11320F0186800238068194600F0E8BA241000200C
S113210080F82410704790F82400704770B5044696
S11321100568FFF789FF844202D10020FFF778FFAA
S113212095F92830002B11DB012203F01F015B0914
S11321309B0003F160438A4003F56143C3F88021A7
S1132140C3F88020BFF34F8FBFF36F8F002328465F
S1132150C4E90033C4E90433A360EB68BDE870400C
S1132160184790F8243070B505460C468E18E3B92C
S1132170A6420AD095F82630002BF9D028462B68C1
S113218014F8011B98470028F2D070BD95F826304A
S11321905BB123780A2B03D10D2128462B6898477D
S11321A028462B6814F8011B9847A642EED1ECE7A9
S11321B02DE9F7434FF00009044690461E46C3F844
S11321C000904F1E3368434505D2FFF7C4FAA26955
S11321D0C2B9FFF7C6FA94F827305BB9112301227C
S11321E020460DF107018DF80730FFF7BAFF0123F0
S11321F084F827303368002B0CBF1B20002003B069
S1132200BDE8F083E16922698A5C07F8012F25693A
S1132210226A0135954208BF4D46A2692561013AFB
S1132220A261FFF79EFAA3682046984733680133FA
S11322303360C7E708B5FFF794FF002008BD00002E
S1132240F8B51F46536805460C461646002B3ED08B
S11322509368002B3DD02C220021204600F016FA72
S113226073681D4AE361B3682362337B84F82430C6
S1132270B37B276084F8253040F20113E384069B86
S11322806360079BA360089BE36096F9003084F8C1
S113229028306A60114A002BAA60114A2C602A6116
S11322A0104A6A61104AEA600CDB012203F01F0144
S11322B05B099B0003F160438A4003F56143C3F863
S11322C080211A602846FFF7A3FE0020F8BD2220D3
S11322D0FCE72120FAE700BF35220000B12100000D
S11322E001210000072100000D21000010B5044663
S11322F0FFF731FAA269236A9A4203D2FFF731FA4F
S1132300012010BDFFF72DFA0020FAE773B504464B
S11323100D46FFF720FA94F8253006466BB1132DCD
S113232007D1002384F8263002B0BDE87040FFF7DF
S113233018BA112D01D10123F4E7A269236A9A4244
S113234004D34FF4B2711348FEF77CFA6369E2696F
S11323503046D554A26963690132A261226A01330D
S11323609342636104BF00236361FFF7FAF9A26932
S1132370236A9A420BD11323012220460DF107014F
S11323808DF80730FFF7EDFE002384F8273002B004
S113239070BD00BF213D0000C26AD36C43F004034A
S11323A0D364704710B50446C26A93695906FCD5D4
S11323B0002394F833101A4694F83200FFF7D4FB44
S11323C0002394F835101A4694F83400FFF7CCFB38
S11323D094F83A30DA0707D5002394F837101A46F0
S11323E094F83600FFF7C0FB94F83A309B0707D502
S11323F0002394F839101A4694F83800FFF7B4FB18
S1132400E06A0021FFF770FC208E0021FEF7F6FB46
S1132410002010BD08B5C06AFFF75CFD002008BDB0
S11324202DE9F0411C46574B86B00293564B0127C9
S1132430019300230C9D00939046CDE903770A464F
S1132440524B2946FFF7FCFE0646002874D1236848
S11324503946EB62A3883A202B86E37985F833303A
S1132460A37985F83230637A85F83530237A85F894
S11324703430E37A85F83730A37A85F83630637BD5
S113248085F83930237B85F83830FEF7B7FB3B46B7
S11324900422E179A079FFF767FB3B460222617AC7
S11324A0207AFFF761FB3946A088FEF7A7FB88F87E
S11324B0006041462068FFF775FC1422A37B5B0192
S11324C003F1804303F57033C3F81C26E179A27944
S11324D042EA0142C3F83426617A227A42EA01428E
S11324E0C3F82C2685F83A6098F81930032B46D89F
S11324F0DFE803F01A022640012385F83A3000256C
S113250000230222E17AA07AFFF72EFBE37AA27A73
S1132510A17B42EA03421E4B49015A50042223681C
S113252003F58053DA6575B920680521C36C43F05F
S11325300403C364FFF7D8FB304606B0BDE8F0815E
S1132540022385F83A3000230422617B207BFFF7C5
S11325500BFB022541F21C61A27B0E4B03EB4210E4
S11325604550607B217BB13241EA004103EB4213C9
S11325709960D9E7032385F83A300125C0E723267B
S1132580DAE700BFA523000099230000152400000A
S113259024D6034000C00340C36A10B59B690446B7
S11325A01B0610D5FFF7A2FE40B1E06AFFF78CFCD2
S11325B001462046BDE81040FFF7A8BEE26AD36C8E
S11325C023F00403D36410BD08B5FDF75DFEFDF7E9
S11325D08BFEFDF790FEFDF797FEBDE80840FDF782
S11325E094BE08B5FDF793FEFDF792FEFDF791FE4C
S11325F0BDE80840FDF78EBE08B5074B044613B18D
S1132600002100E000BF054B1868836A03B19847B6
S11326102046FFF744FD00BF00000000883D000095
S1132620074B10B51C6824B1A36913B9204600F008
S11326303BFA61682046BDE8104000F0EFBA00BFE5
S11326402410002070B50D4D00260D4C641BA41001
S1132650A64209D10B4D00260B4C01F07BF9641BFB
S1132660A410A64205D170BD55F8043B0136984725
S1132670EEE755F8043B01369847F2E7881000204E
S113268088100020881000208C100020024403468B
S1132690934200D1704703F8011BF9E70FB40A4BCA
S11326A013B51C6824B1A36913B9204600F0FCF9E2
S11326B005AB049AA1682046019300F02FFC02B0F8
S11326C0BDE8104004B07047241000202DE9F74302
S11326D01D465C4B04460E461F68904627B1BB69F5
S11326E013B9384600F0E0F9574B9C4267D17C6837
S11326F0B8F1020F06D0B8F1010F00F29E80002D50
S1132700C0F29B80636EDB0705D4A389980502D4CD
S1132710A06D00F0C4FA2146384600F01FF9616B41
S113272041B104F14403994202D0384600F026FB3B
S1132730002363630023A3616360A389190603D59F
S11327402169384600F01AFBA389B8F1020F23F47B
S11327504A6323F00303A3816BD001AB6A4621468D
S1132760384600F09EFAA3891843A081002D30D189
S1132770009D284600F0FAFA0646002854D1DDF8F8
S11327800090A94549D14FF0FF350022B4F90C302F
S1132790A26004F1470243F0020322602261012295
S11327A0A3816261626ED20705D413F4007F02D163
S11327B0A06D00F075FA284603B0BDE8F083234B02
S11327C09C4201D1BC6893E7214B9C4208BFFC6842
S11327D08EE7002ECDD0BB6913B9384600F064F9FA
S11327E0B8F1010F266002BFA38943F00103A3815E
S11327F0A28912F00803C4E904651CD0D30745BFBD
S113280000236D42A560A36048BFA561656E15F005
S1132810010515D112F4007FC9E7484600F0A6FA75
S113282006460028AFD04D46A38943F08003A38118
S1132830D1E70025A9E7A360E8E74FF0FF35BAE741
S11328400025B8E724100020AC3D0000CC3D00007A
S11328508C3D00008A892DE9F041054610070C469D
S113286058D44B68002B05DC0B6C002B02DC0020D9
S1132870BDE8F081E66A002EF9D0002312F48052FC
S11328802F682B6032D0606DA3895A0705D5636821
S1132890C01A636B0BB1236CC01A00230246E66AAC
S11328A02846216AB047431CA38906D129681D29FB
S11328B02CD8294ACA40D60728D50022D9046260F8
S11328C02269226004D5421C01D12B6803B96065DA
S11328D0616B2F600029CAD004F14403994202D0ED
S11328E0284600F04BFA00206063C1E7216A012307
S11328F02846B047411CC7D12B68002BC4D01D2BE0
S113290001D0162B01D12F60B1E7A38943F0400316
S1132910A381ADE70F69002FA9D093070E680F605C
S11329200CBF4B690023A6EB07088B60B8F1000FBE
S11329309DDD43463A46216A2846A66AB0470028E8
S113294006DCA3894FF0FF3043F04003A3818FE7F7
S11329500744A8EB0008E9E70100402038B50B69FB
S113296005460C4613B90025284638BD18B18369BD
S11329700BB900F099F8144B9C421BD16C68B4F964
S11329800C30002BEFD0626ED00704D4990502D42A
S1132990A06D00F084F928462146FFF75BFF636EC3
S11329A00546DA07E0D4A3899B05DDD4A06D00F0C9
S11329B077F9D9E7054B9C4201D1AC68DFE7044BBA
S11329C09C4208BFEC68DAE7AC3D0000CC3D000057
S11329D08C3D0000014620B9044B0549186800F0FD
S11329E0FEB8044B1868FFF7B9BF00BF883D00006C
S11329F05D29000024100020002310B504468360E4
S1132A00818119464366C28108228361C0E900338B
S1132A10C0E904335C30FFF739FE054B246263627E
S1132A20044BA362044BE362044B236310BD00BF59
S1132A3021350000433500007B3500009F35000040
S1132A40014900F0CCB800BF5D29000070B56822D0
S1132A504D1E0E46554305F1740100F0DBF90446A2
S1132A6040B1002105F16802C0E900160C30A060F5
S1132A70FFF70CFE204670BD014800F010B900BFFE
S1132A80B1140020014800F00BB900BFB1140020BC
S1132A90014800F004B900BFB2140020014800F05E
S1132AA0FFB800BFB214002010B50446FFF7F0FFD2
S1132AB0A3691BB1BDE81040FFF7F0BFC4E91233AE
S1132AC023652046124B134A1B68A262A34204BF2B
S1132AD00123A36100F020F86060204600F01CF898
S1132AE0A060204600F018F800220421E06060682D
S1132AF0FFF782FF01220921A068FFF77DFF022270
S1132B001221E068FFF778FF0123A361D2E700BF39
S1132B10883D0000412A0000F8B50746FFF7ACFFE6
S1132B201E4B1E68B36913B93046FFF7BDFF483624
S1132B30D6E90134013B03D533680BB33668F7E7B4
S1132B40B4F90C50D5B9164B04F158006566E3602E
S1132B5000F0A4F8FFF796FF0822294604F15C0070
S1132B602560A561C4E90155C4E90455FFF78EFD4C
S1132B70C4E90D55C4E912552046F8BD6834D9E7B7
S1132B8004213846FFF762FF044630600028D5D19F
S1132B90FFF778FF0C233B60EEE700BF883D0000A1
S1132BA00100FFFF2DE9F0410F4600F14804002623
S1132BB0D4E90185B8F1010805D52468002CF7D1C2
S1132BC03046BDE8F081AB89012B06D9B5F90E304A
S1132BD0013302D02846B84706436835EAE72DE9B1
S1132BE0F8430646884600F148040027D4E90195D5
S1132BF0B9F1010905D52468002CF7D13846BDE8A0
S1132C00F883AB89012B07D9B5F90E30013303D012
S1132C1029463046C04707436835E9E738B50C46CE
S1132C20054618B183690BB9FFF73EFF184B9C4268
S1132C301ED16C68636ED80705D4A389990502D4A4
S1132C40A06D00F02CF86368013B002B636019DA77
S1132C502846214600F028FC0546636EDA0705D4B1
S1132C60A3899B0502D4A06D00F01AF8284638BD4C
S1132C70084B9C4201D1AC68DCE7074B9C4208BF7F
S1132C80EC68D7E723685A1C22601D78E5E700BF8B
S1132C90AC3D0000CC3D00008C3D00007047704707
S1132CA0704770B50E46B1F90E1096B0144600295F
S1132CB01D4608DAB6F90C3000222A601A0610D430
S1132CC04FF480630EE06A4600F050FD0028F1DB0B
S1132CD0019A02F47042A2F500535A425A412A6002
S1132CE0EEE740230020236016B070BD8B8973B5D6
S1132CF09D0706460C4607D504F14703236023616C
S1132D000123636102B070BD01AB6A46FFF7C9FFDE
S1132D1000990546304600F07DF848B9B4F90C3006
S1132D209A05EFD423F0030343F00203A381E3E7FE
S1132D300D4BB362A389206043F080032061A3811B
S1132D40009B6361019B5BB1B4F90E10304600F047
S1132D501FFD28B1A38923F0030343F00103A381DA
S1132D60A0890543A581CDE7412A0000024B014615
S1132D70186800F04FB800BF2410002037B50029B0
S1132D8043D051F8043C0C1F0190002BB8BFE41849
S1132D9000F02EFD1E4A0198136833B96360146075
S1132DA003B0BDE8304000F029BDA34208D925682E
S1132DB061198B4201BF19685B6849192160EDE70D
S1132DC01A465B680BB1A342FAD911685518A5429B
S1132DD00BD12468214454181160A342E0D11C682B
S1132DE05B68214453601160DAE702D90C23036065
S1132DF0D6E7256861198B4202BF19685B684919D7
S1132E00636008BF21605460CAE703B030BD00BFEF
S1132E10B4140020F8B5CD1C064625F0030508358A
S1132E200C2D38BF0C25002D01DBA94203D90C233E
S1132E3033600020F8BD00F0DBFC21490A68144629
S1132E409CB9204F3B6823B92146304600F058FB1B
S1132E5038602946304600F053FB431C23D10C2331
S1132E603046336000F0CAFCE3E723685B1B17D4E9
S1132E700B2B03D923601C44256004E06368A24241
S1132E800CBF0B605360304600F0B8FC04F10B003B
S1132E90231D20F00700C21ACCD01B1AA350C9E787
S1132EA022466468CCE7C41C24F00304A042E3D0A7
S1132EB0211A304600F024FB0130DDD1CFE700BFFA
S1132EC0B4140020B81400209368013B002B9360D5
S1132ED010B408DA9469A34201DB0A2903D15DF82E
S1132EE0044B00F061BB1368581C1060084619704D
S1132EF05DF8044B7047F8B506460F461446D518DE
S1132F00AC4201D1002007E03A4614F8011B3046D8
S1132F10FFF7DAFF431CF3D1F8BD00002DE9F04FB1
S1132F200D469DB014469846064618B183690BB900
S1132F30FFF7BAFD894B9D421BD175686B6ED907AB
S1132F4005D4AB899A0502D4A86DFFF7A8FEAB8916
S1132F501B0701D52B69EBB92946304600F088FBE5
S1132F60C0B16B6EDC070ED54FF0FF301DB0BDE86D
S1132F70F08F7B4B9D4201D1B568DFE7794B9D42D1
S1132F8008BFF568DAE7AB899805EDD4A86DFFF7BB
S1132F9087FEE9E70023CDF80C804FF00109DFF844
S1132FA0C881099320238DF8293030238DF82A30E5
S1132FB023469A4613F8012B0AB1252AF9D1BAEB14
S1132FC0040B0BD05B46224629463046FFF793FF9D
S1132FD0013000F0AA80099A5A4409929AF8003004
S1132FE0002B00F0A28000234FF0FF320AF1010A07
S1132FF0049307938DF853301A93CDE9052354466F
S11330000522594814F8011B00F0E4FB049AD8B9CE
S1133010D10644BF20238DF85330130744BF2B231C
S11330208DF853309AF800302A2B15D0079A54465D
S113303000204FF00A0C214611F8013B303B092BCC
S11330404ED9B0B1079214E0A0EB0803A24609FAE6
S113305003F313430493D2E7039B191D1B68002B4E
S11330600391BBBF5B4242F0020207930793B8BFD0
S1133070049223782E2B0CD163782A2B35D1039B11
S113308002341A1D1B68002B0392B8BF4FF0FF33A4
S11330900593DFF8E4A003222178504600F09AFB60
S11330A040B14023A0EB0A00013403FA00F0049B72
S11330B00343049314F8011B06222C488DF82810AE
S11330C000F088FB00283FD0294B1BBB039B073330
S11330D023F0070308330393099B3B44099367E7F1
S11330E00CFB02320C460120A5E7002301344FF00B
S11330F00A0C19460593204610F8012B303A092A88
S113310003D9002BC5D00591C3E70CFB012104466C
S11331100123F0E703AB2A4604A930460093154B7C
S113312000E000BF0746781CD6D16B6ED90705D4E2
S1133130AB899A0502D4A86DFFF7B2FDAB895B0693
S11331403FF512AF099811E703AB2A4604A93046AC
S11331500093084B00F082F8E4E700BFAC3D0000A8
S1133160CC3D00008C3D0000EC3D0000F63D00002D
S113317000000000F72E0000F23D00002DE9F047AA
S1133180164699468A6807460B690C46DDF8208086
S11331909342B8BF1346336091F843200AB1013318
S11331A033602368990642BF33680233336025686D
S11331B015F0060506D104F1190AE36832689B1A72
S11331C0AB4229DC94F84320131E226818BF012364
S11331D092062ED404F1430249463846C0470130D2
S11331E021D023681A3454F80E5C03F006033268C5
S11331F00026042B54F8123C08BFAD1A54F80A2CCC
S113320014BF002525EAE5759342C4BF9B1AED1847
S1133210B5421AD1002008E00123524649463846F7
S1133220C047013003D14FF0FF30BDE8F0870135CE
S1133230C3E7E1185A1C30200233224481F84300CA
S113324094F8451082F84310C4E701232246494606
S11332503846C0470130E6D00136D9E72DE9FF47AB
S11332600F7E914680460C46782F9A460C9D01F1BC
S1133270430207D8622F0AD8002F00F0D880582FB5
S113328000F0A38004F1420584F842703AE0A7F10B
S11332906303152BF6D801A151F823F0F532000091
S11332A009330000853200008532000085320000B9
S11332B085320000093300008532000085320000A9
S11332C085320000853200001534000039330000D7
S11332D0F7330000853200008532000037340000E7
S11332E08532000039330000853200008532000049
S11332F0FF3300002B681A1D1B682A6004F1420585
S113330084F842300123A3E020682968060601F10D
S113331004030AD50E682B60002E03DA2D237642AF
S113332084F843305E480A2319E00E6810F0400F19
S11333302B6018BF36B2EFE72B682068191D29608F
S1133340010601D51E6802E04606FBD51E886F2FD4
S113335053480CBF08230A23002184F843106568EE
S1133360002DA560A2BF216821F0040121600EB9DF
S1133370002D4DD01546B6FBF3F103FB1167C75D75
S113338005F8017D37460E46BB42F4D9082B0BD114
S11333902368DE0708D5236961689942DEBF3023BC
S11333A005F8013C05F1FF35521B22614B4603AA87
S11333B021464046CDF800A0FFF7E0FE01304CD195
S11333C04FF0FF3004B0BDE8F087354881F8457010
S11333D02968236851F8046B29601D0614D5DF079A
S11333E044BF43F0200323601EB9236823F0200365
S11333F023601023B0E7236843F02003236078237D
S1133400284884F84530E3E7590648BFB6B2E6E7F2
S11334101546BBE72B682668181D616928603506C8
S11334201B6801D5196002E07006FBD519800023E2
S113343015462361BAE72B6800211A1D2A601D680E
S11334406268284600F0C6F908B1401B60606368F2
S11334502361002384F84330A8E723692A464946B8
S11334604046D0470130ABD023689B0713D4E068B3
S1133470039B9842B8BF1846A4E701233246494645
S11334804046D04701309BD00135E36803995B1A6D
S1133490AB42F2DCEBE7002504F11906F5E700BFC7
S11334A0FD3D00000E3E000038B50C46054618B13F
S11334B083690BB9FFF7F8FA0E4B9C420DD16C6887
S11334C02146284600F0BCF988B96368013B636073
S11334D023685A1C2260187838BD074B9C4201D1DE
S11334E0AC68EDE7054B9C4208BFEC68E8E74FF099
S11334F0FF30F1E7AC3D0000CC3D00008C3D000006
S113350038B50023054D044608462B60FCF7F4FF4C
S1133510431C02D12B6803B1236038BDBC140020C6
S113352010B50C46B1F90E1000F06EF90028ABBFCF
S1133530636DA3891B1823F48053ACBF6365A38117
S113354010BD2DE9F0411F468B8905460C46DB056D
S1133550164605D502230022B1F90E1000F028F911
S1133560A3893246B4F90E10284623F48053A3816C
S11335703B46BDE8F04100F069B810B50C46B1F91E
S11335800E1000F015F9431CA38915BF606523F4E0
S1133590805343F48053A38118BFA38110BDB1F9B4
S11335A00E1000F0D3B80000F8B50E4614460546D8
S11335B018B183690BB9FFF777FA214B9C422BD1E1
S11335C06C68A369A360A3891A072FD523696BB319
S11335D02369F6B220683746C01A6369834204DC63
S11335E021462846FFF7BAF930BBA3680130013BF6
S11335F0A36023685A1C22601E706369834204D04E
S1133600A389DB0706D50A2E04D121462846FFF7F5
S1133610A5F988B93846F8BD0A4B9C4201D1AC687B
S1133620CFE7094B9C4208BFEC68CAE7214628460D
S113363000F01EF80028CBD04FF0FF37EAE700BFB8
S1133640AC3D0000CC3D00008C3D000038B5044684
S1133650064D0846114600222A601A46FEF738FD38
S1133660431C02D12B6803B1236038BDBC14002075
S1133670324B70B51D6806460C4625B1AB6913B9CB
S11336802846FFF711FA2E4B9C420FD16C68A38990
S1133690B4F90C2019072CD4DD0611D409233360A6
S11336A042F040034FF0FF30A3813EE0254B9C42A3
S11336B001D1AC68EBE7244B9C4208BFEC68E6E719
S11336C0580712D5616B41B104F14403994202D009
S11336D03046FFF753FB00236363A38923F02403DD
S11336E0A3810023636023692360A38943F0080353
S11336F0A38123694BB9A38903F42073B3F5007F35
S113370003D021463046FFF7F1FAA089B4F90C2022
S113371010F001030AD00023A36063695B42A36134
S1133720236943B910F08000BAD170BD810758BF36
S11337306369A360F4E70020F7E700BF24100020CA
S1133740AC3D0000CC3D00008C3D000038B50023AA
S1133750054D044608462B60FEF79FFC431C02D12E
S11337602B6803B1236038BDBC14002038B5002396
S1133770064D0446084611462B60FEF791FC431C97
S113378002D12B6803B1236038BD00BFBC140020F4
S113379038B50023054D044608462B60FEF785FC2A
S11337A0431C02D12B6803B1236038BDBC14002034
S11337B038B50446064D0846114600222A601A46CA
S11337C0FEF775FC431C02D12B6803B1236038BD9E
S11337D0BC140020C9B2024410B59042034601D182
S11337E0002303E01C7801308C42F6D1184610BD4A
S11337F00148FFF754BA00BFB01400200148FFF796
S11338004FBA00BFB014002038B50446064D084630
S1133810114600222A601A46FEF74BFC431C02D1D3
S11338202B6803B1236038BDBC140020838903F0E6
S11338300903092B01D1FFF7CDB800207047000020
S1133840F8B50C46054618B183690BB9FFF72CF996
S11338503B4B9C420AD16C680023B4F90C20636092
S1133860A3899E060CD54FF0FF3066E0354B9C4291
S113387001D1AC68F0E7344B9C4208BFEC68EBE73D
S1133880580748D4D90605D409232B6042F04003D5
S1133890A381E8E71A070BD521462846FFF75EF80F
S11338A00028E0D1A389A06023F00803A061A381CC
S11338B0A38943F00403A38123691BB92146284645
S11338C0FFF714FAA689B4F90C70B3070FD00123DB
S11338D006F009061D49A3811D4B1868FFF762F91C
S11338E0092EA78103D121462846FEF7B3FF22699A
S11338F02846666A6369216A2260B04700286060CE
S11339001CDCB4F90C3017BF002243F0200343F051
S113391040036260BCE7616B0029CDD004F144032D
S1133920994202D02846FFF729FA0020236C6063ED
S11339306360002BC0D0E36B2360F8BD0020FCE77C
S1133940AC3D0000CC3D00008C3D00002D38000053
S1133950883D0000F8B500BFF8BC08BC9E4670471F
S1133960F8B500BFF8BC08BC9E46704725640A0041
S11339702E2E2F6175746F67656E2F736C5F696F80
S113398073747265616D5F696E69745F757361727A
S1133990745F696E7374616E6365732E63000000F7
S11339A0050000000000000000C201000005000046
S11339B000100000000000000000000000000640AD
S11339C02900000500060008000701000F10000090
S11339D0E81000202000000000010000001000207A
S11339E0990500000B0600005D0600006F0600004C
S11339F005060000643A5C66736F66742D696F7423
S1133A005C6765636B6F5F73646B2D6773646B5F77
S1133A10342E305C6765636B6F5F73646B2D677303
S1133A20646B5F342E305C706C6174666F726D5CB5
S1133A30656D6C69625C696E635C656D5F67706916
S1133A406F2E6800443A2F46534F46542D496F5405
S1133A502F6765636B6F5F73646B2D6773646B5F54
S1133A60342E302F6765636B6F5F73646B2D6773E0
S1133A70646B5F342E302F706C6174666F726D2FBF
S1133A806472697665722F627574746F6E2F7372C7
S1133A90632F736C5F73696D706C655F62757474AA
S1133AA06F6E2E6300443A2F46534F46542D496F90
S1133AB0542F6765636B6F5F73646B2D6773646BFF
S1133AC05F342E302F6765636B6F5F73646B2D6794
S1133AD073646B5F342E302F706C6174666F726D1B
S1133AE02F656D6C69622F7372632F656D5F636DF3
S1133AF0752E630002010103030206010504443A22
S1133B002F46534F46542D496F542F6765636B6F8F
S1133B105F73646B2D6773646B5F342E302F67653E
S1133B20636B6F5F73646B2D6773646B5F342E30EC
S1133B302F706C6174666F726D2F656D6C69622F86
S1133B407372632F656D5F636F72652E6300443A11
S1133B502F46534F46542D496F542F6765636B6F3F
S1133B605F73646B2D6773646B5F342E302F6765EE
S1133B70636B6F5F73646B2D6773646B5F342E309C
S1133B802F706C6174666F726D2F656D6C69622F36
S1133B907372632F656D5F656D752E6300643A5CA7
S1133BA066736F66742D696F745C6765636B6F5FB2
S1133BB073646B2D6773646B5F342E305C6765636D
S1133BC06B6F5F73646B2D6773646B5F342E305C53
S1133BD0706C6174666F726D5C656D6C69625C6952
S1133BE06E635C656D5F6275732E6800443A2F46A0
S1133BF0534F46542D496F542F6765636B6F5F7342
S1133C00646B2D6773646B5F342E302F6765636B51
S1133C106F5F73646B2D6773646B5F342E302F702A
S1133C206C6174666F726D2F656D6C69622F73724F
S1133C30632F656D5F6770696F2E6300443A2F468A
S1133C40534F46542D496F542F6765636B6F5F73F1
S1133C50646B2D6773646B5F342E302F6765636B01
S1133C606F5F73646B2D6773646B5F342E302F70DA
S1133C706C6174666F726D2F656D6C69622F7372FF
S1133C80632F656D5F75736172742E6300010304A5
S1133C9001010109030B0B020000202000038C8C9E
S1133CA03C000000000000000126040000010000A8
S1133CB0000000443A2F46534F46542D496F542F69
S1133CC06765636B6F5F73646B2D6773646B5F34DD
S1133CD02E302F6765636B6F5F73646B2D6773643E
S1133CE06B5F342E302F706C6174666F726D2F733E
S1133CF06572766963652F696F73747265616D2F80
S1133D007372632F736C5F696F73747265616D5F37
S1133D1072657461726765745F737464696F2E632E
S1133D2000443A2F46534F46542D496F542F67652C
S1133D30636B6F5F73646B2D6773646B5F342E30DA
S1133D402F6765636B6F5F73646B2D6773646B5F61
S1133D50342E302F706C6174666F726D2F736572C0
S1133D60766963652F696F73747265616D2F737201
S1133D70632F736C5F696F73747265616D5F7561D6
S1133D8072742E6300000000281000200000000060
S1133D90000000000000000000000000000000001F
S1133DA0000000000000000000000000000000000F
S1133DB000000000000000000000000000000000FF
S1133DC000000000000000000000000000000000EF
S1133DD000000000000000000000000000000000DF
S1133DE0000000000000000000000000232D302B24
S1133DF02000686C4C0065666745464700303132E8
S1133E00333435363738394142434445460030313E
S1133E10323334353637383961626364656600009D
S10B3E2060C3FF7F01000000F4
S1133E28000000000200020001041F00C0EA210192
S1133E38C0EA210100F0490200800000C0140020FB
S1133E48FFFF00002810002000000000AC3D000027
S1133E58CC3D00008C3D0000000000000000000084
S1133E680000000000000000000000000000000046
S1133E780000000000000000000000000000000036
S1133E880000000000000000000000000000000026
S1133E980000000000000000000000000000000016
S1133EA8000000000000000065010000410100005E
S90303F504
